{
  "_format": "hh-sol-artifact-1",
  "contractName": "Pool",
  "sourceName": "contracts/Pool.sol",
  "abi": [
    {
      "anonymous": false,
      "inputs": [
        {
          "indexed": false,
          "internalType": "address",
          "name": "account",
          "type": "address"
        }
      ],
      "name": "Paused",
      "type": "event"
    },
    {
      "anonymous": false,
      "inputs": [
        {
          "indexed": false,
          "internalType": "address",
          "name": "account",
          "type": "address"
        }
      ],
      "name": "Unpaused",
      "type": "event"
    },
    {
      "inputs": [
        {
          "internalType": "uint256",
          "name": "amount",
          "type": "uint256"
        }
      ],
      "name": "depositInPool",
      "outputs": [],
      "stateMutability": "nonpayable",
      "type": "function"
    },
    {
      "inputs": [],
      "name": "paused",
      "outputs": [
        {
          "internalType": "bool",
          "name": "",
          "type": "bool"
        }
      ],
      "stateMutability": "view",
      "type": "function"
    }
  ],
  "bytecode": "0x608060405234801561001057600080fd5b506000805460ff191690556101598061002a6000396000f3fe608060405234801561001057600080fd5b50600436106100365760003560e01c80631d95e7f11461003b5780635c975abb14610050575b600080fd5b61004e6100493660046100e7565b61006a565b005b60005460ff16604051901515815260200160405180910390f35b60005460ff16156100b45760405162461bcd60e51b815260206004820152601060248201526f14185d5cd8589b194e881c185d5cd95960821b604482015260640160405180910390fd5b33600090815260056020526040902080546100d09083906100ff565b81556004546100e09083906100ff565b6004555050565b6000602082840312156100f8578081fd5b5035919050565b6000821982111561011e57634e487b7160e01b81526011600452602481fd5b50019056fea2646970667358221220386ba2ab487907c4ab0a869d2b66ff4a03e3d8356eab798c45480eb09f89ca2b64736f6c63430008040033",
  "linkReferences": {},
  "deployedLinkReferences": {}
}