{
  "_format": "hh-sol-artifact-1",
  "contractName": "MyAssets",
  "sourceName": "contracts/MyAssets.sol",
  "abi": [
    {
      "inputs": [
        {
          "internalType": "bytes32[]",
          "name": "assetsForSale",
          "type": "bytes32[]"
        }
      ],
      "stateMutability": "nonpayable",
      "type": "constructor"
    },
    {
      "anonymous": false,
      "inputs": [
        {
          "indexed": true,
          "internalType": "address",
          "name": "owner",
          "type": "address"
        },
        {
          "indexed": true,
          "internalType": "address",
          "name": "approved",
          "type": "address"
        },
        {
          "indexed": true,
          "internalType": "uint256",
          "name": "tokenId",
          "type": "uint256"
        }
      ],
      "name": "Approval",
      "type": "event"
    },
    {
      "anonymous": false,
      "inputs": [
        {
          "indexed": true,
          "internalType": "address",
          "name": "owner",
          "type": "address"
        },
        {
          "indexed": true,
          "internalType": "address",
          "name": "operator",
          "type": "address"
        },
        {
          "indexed": false,
          "internalType": "bool",
          "name": "approved",
          "type": "bool"
        }
      ],
      "name": "ApprovalForAll",
      "type": "event"
    },
    {
      "anonymous": false,
      "inputs": [
        {
          "indexed": true,
          "internalType": "address",
          "name": "previousOwner",
          "type": "address"
        },
        {
          "indexed": true,
          "internalType": "address",
          "name": "newOwner",
          "type": "address"
        }
      ],
      "name": "OwnershipTransferred",
      "type": "event"
    },
    {
      "anonymous": false,
      "inputs": [
        {
          "indexed": true,
          "internalType": "address",
          "name": "from",
          "type": "address"
        },
        {
          "indexed": true,
          "internalType": "address",
          "name": "to",
          "type": "address"
        },
        {
          "indexed": true,
          "internalType": "uint256",
          "name": "tokenId",
          "type": "uint256"
        }
      ],
      "name": "Transfer",
      "type": "event"
    },
    {
      "inputs": [
        {
          "internalType": "bytes32[]",
          "name": "assetsForSale",
          "type": "bytes32[]"
        }
      ],
      "name": "addAssets",
      "outputs": [],
      "stateMutability": "nonpayable",
      "type": "function"
    },
    {
      "inputs": [
        {
          "internalType": "address",
          "name": "to",
          "type": "address"
        },
        {
          "internalType": "uint256",
          "name": "tokenId",
          "type": "uint256"
        }
      ],
      "name": "approve",
      "outputs": [],
      "stateMutability": "nonpayable",
      "type": "function"
    },
    {
      "inputs": [
        {
          "internalType": "address",
          "name": "owner",
          "type": "address"
        }
      ],
      "name": "balanceOf",
      "outputs": [
        {
          "internalType": "uint256",
          "name": "",
          "type": "uint256"
        }
      ],
      "stateMutability": "view",
      "type": "function"
    },
    {
      "inputs": [
        {
          "internalType": "string",
          "name": "tokenURI",
          "type": "string"
        }
      ],
      "name": "checkStatus",
      "outputs": [
        {
          "internalType": "bool",
          "name": "",
          "type": "bool"
        }
      ],
      "stateMutability": "view",
      "type": "function"
    },
    {
      "inputs": [
        {
          "internalType": "bytes32",
          "name": "",
          "type": "bytes32"
        }
      ],
      "name": "forSale",
      "outputs": [
        {
          "internalType": "bool",
          "name": "",
          "type": "bool"
        }
      ],
      "stateMutability": "view",
      "type": "function"
    },
    {
      "inputs": [
        {
          "internalType": "uint256",
          "name": "tokenId",
          "type": "uint256"
        }
      ],
      "name": "getApproved",
      "outputs": [
        {
          "internalType": "address",
          "name": "",
          "type": "address"
        }
      ],
      "stateMutability": "view",
      "type": "function"
    },
    {
      "inputs": [
        {
          "internalType": "address",
          "name": "owner",
          "type": "address"
        },
        {
          "internalType": "address",
          "name": "operator",
          "type": "address"
        }
      ],
      "name": "isApprovedForAll",
      "outputs": [
        {
          "internalType": "bool",
          "name": "",
          "type": "bool"
        }
      ],
      "stateMutability": "view",
      "type": "function"
    },
    {
      "inputs": [
        {
          "internalType": "string",
          "name": "tokenURI",
          "type": "string"
        }
      ],
      "name": "mintItem",
      "outputs": [
        {
          "internalType": "uint256",
          "name": "",
          "type": "uint256"
        }
      ],
      "stateMutability": "nonpayable",
      "type": "function"
    },
    {
      "inputs": [],
      "name": "name",
      "outputs": [
        {
          "internalType": "string",
          "name": "",
          "type": "string"
        }
      ],
      "stateMutability": "view",
      "type": "function"
    },
    {
      "inputs": [],
      "name": "owner",
      "outputs": [
        {
          "internalType": "address",
          "name": "",
          "type": "address"
        }
      ],
      "stateMutability": "view",
      "type": "function"
    },
    {
      "inputs": [
        {
          "internalType": "uint256",
          "name": "tokenId",
          "type": "uint256"
        }
      ],
      "name": "ownerOf",
      "outputs": [
        {
          "internalType": "address",
          "name": "",
          "type": "address"
        }
      ],
      "stateMutability": "view",
      "type": "function"
    },
    {
      "inputs": [],
      "name": "renounceOwnership",
      "outputs": [],
      "stateMutability": "nonpayable",
      "type": "function"
    },
    {
      "inputs": [
        {
          "internalType": "address",
          "name": "from",
          "type": "address"
        },
        {
          "internalType": "address",
          "name": "to",
          "type": "address"
        },
        {
          "internalType": "uint256",
          "name": "tokenId",
          "type": "uint256"
        }
      ],
      "name": "safeTransferFrom",
      "outputs": [],
      "stateMutability": "nonpayable",
      "type": "function"
    },
    {
      "inputs": [
        {
          "internalType": "address",
          "name": "from",
          "type": "address"
        },
        {
          "internalType": "address",
          "name": "to",
          "type": "address"
        },
        {
          "internalType": "uint256",
          "name": "tokenId",
          "type": "uint256"
        },
        {
          "internalType": "bytes",
          "name": "_data",
          "type": "bytes"
        }
      ],
      "name": "safeTransferFrom",
      "outputs": [],
      "stateMutability": "nonpayable",
      "type": "function"
    },
    {
      "inputs": [
        {
          "internalType": "address",
          "name": "operator",
          "type": "address"
        },
        {
          "internalType": "bool",
          "name": "approved",
          "type": "bool"
        }
      ],
      "name": "setApprovalForAll",
      "outputs": [],
      "stateMutability": "nonpayable",
      "type": "function"
    },
    {
      "inputs": [
        {
          "internalType": "bytes4",
          "name": "interfaceId",
          "type": "bytes4"
        }
      ],
      "name": "supportsInterface",
      "outputs": [
        {
          "internalType": "bool",
          "name": "",
          "type": "bool"
        }
      ],
      "stateMutability": "view",
      "type": "function"
    },
    {
      "inputs": [],
      "name": "symbol",
      "outputs": [
        {
          "internalType": "string",
          "name": "",
          "type": "string"
        }
      ],
      "stateMutability": "view",
      "type": "function"
    },
    {
      "inputs": [
        {
          "internalType": "uint256",
          "name": "tokenId",
          "type": "uint256"
        }
      ],
      "name": "tokenURI",
      "outputs": [
        {
          "internalType": "string",
          "name": "",
          "type": "string"
        }
      ],
      "stateMutability": "view",
      "type": "function"
    },
    {
      "inputs": [
        {
          "internalType": "address",
          "name": "from",
          "type": "address"
        },
        {
          "internalType": "address",
          "name": "to",
          "type": "address"
        },
        {
          "internalType": "uint256",
          "name": "tokenId",
          "type": "uint256"
        }
      ],
      "name": "transferFrom",
      "outputs": [],
      "stateMutability": "nonpayable",
      "type": "function"
    },
    {
      "inputs": [
        {
          "internalType": "address",
          "name": "newOwner",
          "type": "address"
        }
      ],
      "name": "transferOwnership",
      "outputs": [],
      "stateMutability": "nonpayable",
      "type": "function"
    },
    {
      "inputs": [
        {
          "internalType": "bytes32",
          "name": "",
          "type": "bytes32"
        }
      ],
      "name": "uriToTokenId",
      "outputs": [
        {
          "internalType": "uint256",
          "name": "",
          "type": "uint256"
        }
      ],
      "stateMutability": "view",
      "type": "function"
    }
  ],
  "bytecode": "0x60806040523480156200001157600080fd5b5060405162001ed438038062001ed483398101604081905262000034916200022d565b60408051808201825260088152674d7941737365747360c01b6020808301918252835180850190945260038452624d594160e81b9084015281519192916200007f9160009162000187565b5080516200009590600190602084019062000187565b505050620000b2620000ac6200013160201b60201c565b62000135565b60005b81518110156200012957600160096000848481518110620000e657634e487b7160e01b600052603260045260246000fd5b6020026020010151815260200190815260200160002060006101000a81548160ff0219169083151502179055508080620001209062000335565b915050620000b5565b505062000373565b3390565b600780546001600160a01b038381166001600160a01b0319831681179093556040519116919082907f8be0079c531659141344cd1fd0a4f28419497f9722a3daafe3b4186f6b6457e090600090a35050565b8280546200019590620002f8565b90600052602060002090601f016020900481019282620001b9576000855562000204565b82601f10620001d457805160ff191683800117855562000204565b8280016001018555821562000204579182015b8281111562000204578251825591602001919060010190620001e7565b506200021292915062000216565b5090565b5b8082111562000212576000815560010162000217565b6000602080838503121562000240578182fd5b82516001600160401b038082111562000257578384fd5b818501915085601f8301126200026b578384fd5b8151818111156200028057620002806200035d565b8060051b604051601f19603f83011681018181108582111715620002a857620002a86200035d565b604052828152858101935084860182860187018a1015620002c7578788fd5b8795505b83861015620002eb578051855260019590950194938601938601620002cb565b5098975050505050505050565b600181811c908216806200030d57607f821691505b602082108114156200032f57634e487b7160e01b600052602260045260246000fd5b50919050565b60006000198214156200035657634e487b7160e01b81526011600452602481fd5b5060010190565b634e487b7160e01b600052604160045260246000fd5b611b5180620003836000396000f3fe608060405234801561001057600080fd5b50600436106101375760003560e01c8063715018a6116100b8578063b7416f2a1161007c578063b7416f2a14610290578063b88d4fde146102b0578063c7545849146102c3578063c87b56dd146102d6578063e985e9c5146102e9578063f2fde38b1461032557600080fd5b8063715018a6146102395780638da5cb5b1461024157806395d89b4114610252578063a22cb4651461025a578063ae374b991461026d57600080fd5b806323b872dd116100ff57806323b872dd146101cc57806342842e0e146101df57806344b0a995146101f25780636352211e1461020557806370a082311461021857600080fd5b806301ffc9a71461013c57806306fdde0314610164578063081812fc14610179578063095ea7b3146101a45780631507a5f6146101b9575b600080fd5b61014f61014a3660046117d1565b610338565b60405190151581526020015b60405180910390f35b61016c61038a565b60405161015b9190611903565b61018c6101873660046117b9565b61041c565b6040516001600160a01b03909116815260200161015b565b6101b76101b23660046116e8565b6104a9565b005b6101b76101c7366004611711565b6105bf565b6101b76101da3660046115fa565b610635565b6101b76101ed3660046115fa565b610666565b61014f610200366004611809565b610681565b61018c6102133660046117b9565b6106c4565b61022b6102263660046115ae565b61073b565b60405190815260200161015b565b6101b76107c2565b6007546001600160a01b031661018c565b61016c610828565b6101b76102683660046116ae565b610837565b61014f61027b3660046117b9565b60096020526000908152604090205460ff1681565b61022b61029e3660046117b9565b600a6020526000908152604090205481565b6101b76102be366004611635565b6108fc565b61022b6102d1366004611809565b610934565b61016c6102e43660046117b9565b610a0c565b61014f6102f73660046115c8565b6001600160a01b03918216600090815260056020908152604080832093909416825291909152205460ff1690565b6101b76103333660046115ae565b610b83565b60006001600160e01b031982166380ac58cd60e01b148061036957506001600160e01b03198216635b5e139f60e01b145b8061038457506301ffc9a760e01b6001600160e01b03198316145b92915050565b60606000805461039990611a59565b80601f01602080910402602001604051908101604052809291908181526020018280546103c590611a59565b80156104125780601f106103e757610100808354040283529160200191610412565b820191906000526020600020905b8154815290600101906020018083116103f557829003601f168201915b5050505050905090565b600061042782610c4e565b61048d5760405162461bcd60e51b815260206004820152602c60248201527f4552433732313a20617070726f76656420717565727920666f72206e6f6e657860448201526b34b9ba32b73a103a37b5b2b760a11b60648201526084015b60405180910390fd5b506000908152600460205260409020546001600160a01b031690565b60006104b4826106c4565b9050806001600160a01b0316836001600160a01b031614156105225760405162461bcd60e51b815260206004820152602160248201527f4552433732313a20617070726f76616c20746f2063757272656e74206f776e656044820152603960f91b6064820152608401610484565b336001600160a01b038216148061053e575061053e81336102f7565b6105b05760405162461bcd60e51b815260206004820152603860248201527f4552433732313a20617070726f76652063616c6c6572206973206e6f74206f7760448201527f6e6572206e6f7220617070726f76656420666f7220616c6c00000000000000006064820152608401610484565b6105ba8383610c6b565b505050565b60005b8151811015610631576001600960008484815181106105f157634e487b7160e01b600052603260045260246000fd5b6020026020010151815260200190815260200160002060006101000a81548160ff021916908315150217905550808061062990611a94565b9150506105c2565b5050565b61063f3382610cd9565b61065b5760405162461bcd60e51b815260040161048490611968565b6105ba838383610dbf565b6105ba838383604051806020016040528060008152506108fc565b60008082604051602001610695919061187b565b60408051601f1981840301815291815281516020928301206000908152600990925290205460ff169392505050565b6000818152600260205260408120546001600160a01b0316806103845760405162461bcd60e51b815260206004820152602960248201527f4552433732313a206f776e657220717565727920666f72206e6f6e657869737460448201526832b73a103a37b5b2b760b91b6064820152608401610484565b60006001600160a01b0382166107a65760405162461bcd60e51b815260206004820152602a60248201527f4552433732313a2062616c616e636520717565727920666f7220746865207a65604482015269726f206164647265737360b01b6064820152608401610484565b506001600160a01b031660009081526003602052604090205490565b6007546001600160a01b0316331461081c5760405162461bcd60e51b815260206004820181905260248201527f4f776e61626c653a2063616c6c6572206973206e6f7420746865206f776e65726044820152606401610484565b6108266000610f5f565b565b60606001805461039990611a59565b6001600160a01b0382163314156108905760405162461bcd60e51b815260206004820152601960248201527f4552433732313a20617070726f766520746f2063616c6c6572000000000000006044820152606401610484565b3360008181526005602090815260408083206001600160a01b03871680855290835292819020805460ff191686151590811790915590519081529192917f17307eab39ab6107e8899845ad3d59bd9653f200f220920489ca2b5937696c31910160405180910390a35050565b6109063383610cd9565b6109225760405162461bcd60e51b815260040161048490611968565b61092e84848484610fb1565b50505050565b60008082604051602001610948919061187b565b60408051601f1981840301815291815281516020928301206000818152600990935291205490915060ff166109af5760405162461bcd60e51b815260206004820152600d60248201526c4e4f5420415641494c41424c4560981b6044820152606401610484565b6000818152600960205260409020805460ff191690556109d3600880546001019055565b60006109de60085490565b90506109ea3382610fe4565b6109f48185611117565b6000918252600a602052604090912081905592915050565b6060610a1782610c4e565b610a7d5760405162461bcd60e51b815260206004820152603160248201527f45524337323155524953746f726167653a2055524920717565727920666f72206044820152703737b732bc34b9ba32b73a103a37b5b2b760791b6064820152608401610484565b60008281526006602052604081208054610a9690611a59565b80601f0160208091040260200160405190810160405280929190818152602001828054610ac290611a59565b8015610b0f5780601f10610ae457610100808354040283529160200191610b0f565b820191906000526020600020905b815481529060010190602001808311610af257829003601f168201915b505050505090506000610b2d60408051602081019091526000815290565b9050805160001415610b40575092915050565b815115610b72578082604051602001610b5a929190611897565b60405160208183030381529060405292505050919050565b610b7b846111a2565b949350505050565b6007546001600160a01b03163314610bdd5760405162461bcd60e51b815260206004820181905260248201527f4f776e61626c653a2063616c6c6572206973206e6f7420746865206f776e65726044820152606401610484565b6001600160a01b038116610c425760405162461bcd60e51b815260206004820152602660248201527f4f776e61626c653a206e6577206f776e657220697320746865207a65726f206160448201526564647265737360d01b6064820152608401610484565b610c4b81610f5f565b50565b6000908152600260205260409020546001600160a01b0316151590565b600081815260046020526040902080546001600160a01b0319166001600160a01b0384169081179091558190610ca0826106c4565b6001600160a01b03167f8c5be1e5ebec7d5bd14f71427d1e84f3dd0314c0f7b2291e5b200ac8c7c3b92560405160405180910390a45050565b6000610ce482610c4e565b610d455760405162461bcd60e51b815260206004820152602c60248201527f4552433732313a206f70657261746f7220717565727920666f72206e6f6e657860448201526b34b9ba32b73a103a37b5b2b760a11b6064820152608401610484565b6000610d50836106c4565b9050806001600160a01b0316846001600160a01b03161480610d8b5750836001600160a01b0316610d808461041c565b6001600160a01b0316145b80610b7b57506001600160a01b0380821660009081526005602090815260408083209388168352929052205460ff16610b7b565b826001600160a01b0316610dd2826106c4565b6001600160a01b031614610e3a5760405162461bcd60e51b815260206004820152602960248201527f4552433732313a207472616e73666572206f6620746f6b656e2074686174206960448201526839903737ba1037bbb760b91b6064820152608401610484565b6001600160a01b038216610e9c5760405162461bcd60e51b8152602060048201526024808201527f4552433732313a207472616e7366657220746f20746865207a65726f206164646044820152637265737360e01b6064820152608401610484565b610ea7600082610c6b565b6001600160a01b0383166000908152600360205260408120805460019290610ed0908490611a16565b90915550506001600160a01b0382166000908152600360205260408120805460019290610efe9084906119ea565b909155505060008181526002602052604080822080546001600160a01b0319166001600160a01b0386811691821790925591518493918716917fddf252ad1be2c89b69c2b068fc378daa952ba7f163c4a11628f55a4df523b3ef91a4505050565b600780546001600160a01b038381166001600160a01b0319831681179093556040519116919082907f8be0079c531659141344cd1fd0a4f28419497f9722a3daafe3b4186f6b6457e090600090a35050565b610fbc848484610dbf565b610fc88484848461127a565b61092e5760405162461bcd60e51b815260040161048490611916565b6001600160a01b03821661103a5760405162461bcd60e51b815260206004820181905260248201527f4552433732313a206d696e7420746f20746865207a65726f20616464726573736044820152606401610484565b61104381610c4e565b156110905760405162461bcd60e51b815260206004820152601c60248201527f4552433732313a20746f6b656e20616c7265616479206d696e746564000000006044820152606401610484565b6001600160a01b03821660009081526003602052604081208054600192906110b99084906119ea565b909155505060008181526002602052604080822080546001600160a01b0319166001600160a01b03861690811790915590518392907fddf252ad1be2c89b69c2b068fc378daa952ba7f163c4a11628f55a4df523b3ef908290a45050565b61112082610c4e565b6111835760405162461bcd60e51b815260206004820152602e60248201527f45524337323155524953746f726167653a2055524920736574206f66206e6f6e60448201526d32bc34b9ba32b73a103a37b5b2b760911b6064820152608401610484565b600082815260066020908152604090912082516105ba928401906114a1565b60606111ad82610c4e565b6112115760405162461bcd60e51b815260206004820152602f60248201527f4552433732314d657461646174613a2055524920717565727920666f72206e6f60448201526e3732bc34b9ba32b73a103a37b5b2b760891b6064820152608401610484565b600061122860408051602081019091526000815290565b905060008151116112485760405180602001604052806000815250611273565b8061125284611387565b604051602001611263929190611897565b6040516020818303038152906040525b9392505050565b60006001600160a01b0384163b1561137c57604051630a85bd0160e11b81526001600160a01b0385169063150b7a02906112be9033908990889088906004016118c6565b602060405180830381600087803b1580156112d857600080fd5b505af1925050508015611308575060408051601f3d908101601f19168201909252611305918101906117ed565b60015b611362573d808015611336576040519150601f19603f3d011682016040523d82523d6000602084013e61133b565b606091505b50805161135a5760405162461bcd60e51b815260040161048490611916565b805181602001fd5b6001600160e01b031916630a85bd0160e11b149050610b7b565b506001949350505050565b6060816113ab5750506040805180820190915260018152600360fc1b602082015290565b8160005b81156113d557806113bf81611a94565b91506113ce9050600a83611a02565b91506113af565b60008167ffffffffffffffff8111156113fe57634e487b7160e01b600052604160045260246000fd5b6040519080825280601f01601f191660200182016040528015611428576020820181803683370190505b5090505b8415610b7b5761143d600183611a16565b915061144a600a86611aaf565b6114559060306119ea565b60f81b81838151811061147857634e487b7160e01b600052603260045260246000fd5b60200101906001600160f81b031916908160001a90535061149a600a86611a02565b945061142c565b8280546114ad90611a59565b90600052602060002090601f0160209004810192826114cf5760008555611515565b82601f106114e857805160ff1916838001178555611515565b82800160010185558215611515579182015b828111156115155782518255916020019190600101906114fa565b50611521929150611525565b5090565b5b808211156115215760008155600101611526565b600067ffffffffffffffff83111561155457611554611aef565b611567601f8401601f19166020016119b9565b905082815283838301111561157b57600080fd5b828260208301376000602084830101529392505050565b80356001600160a01b03811681146115a957600080fd5b919050565b6000602082840312156115bf578081fd5b61127382611592565b600080604083850312156115da578081fd5b6115e383611592565b91506115f160208401611592565b90509250929050565b60008060006060848603121561160e578081fd5b61161784611592565b925061162560208501611592565b9150604084013590509250925092565b6000806000806080858703121561164a578081fd5b61165385611592565b935061166160208601611592565b925060408501359150606085013567ffffffffffffffff811115611683578182fd5b8501601f81018713611693578182fd5b6116a28782356020840161153a565b91505092959194509250565b600080604083850312156116c0578182fd5b6116c983611592565b9150602083013580151581146116dd578182fd5b809150509250929050565b600080604083850312156116fa578182fd5b61170383611592565b946020939093013593505050565b60006020808385031215611723578182fd5b823567ffffffffffffffff8082111561173a578384fd5b818501915085601f83011261174d578384fd5b81358181111561175f5761175f611aef565b8060051b91506117708483016119b9565b8181528481019084860184860187018a101561178a578788fd5b8795505b838610156117ac57803583526001959095019491860191860161178e565b5098975050505050505050565b6000602082840312156117ca578081fd5b5035919050565b6000602082840312156117e2578081fd5b813561127381611b05565b6000602082840312156117fe578081fd5b815161127381611b05565b60006020828403121561181a578081fd5b813567ffffffffffffffff811115611830578182fd5b8201601f81018413611840578182fd5b610b7b8482356020840161153a565b60008151808452611867816020860160208601611a2d565b601f01601f19169290920160200192915050565b6000825161188d818460208701611a2d565b9190910192915050565b600083516118a9818460208801611a2d565b8351908301906118bd818360208801611a2d565b01949350505050565b6001600160a01b03858116825284166020820152604081018390526080606082018190526000906118f99083018461184f565b9695505050505050565b602081526000611273602083018461184f565b60208082526032908201527f4552433732313a207472616e7366657220746f206e6f6e20455243373231526560408201527131b2b4bb32b91034b6b83632b6b2b73a32b960711b606082015260800190565b60208082526031908201527f4552433732313a207472616e736665722063616c6c6572206973206e6f74206f6040820152701ddb995c881b9bdc88185c1c1c9bdd9959607a1b606082015260800190565b604051601f8201601f1916810167ffffffffffffffff811182821017156119e2576119e2611aef565b604052919050565b600082198211156119fd576119fd611ac3565b500190565b600082611a1157611a11611ad9565b500490565b600082821015611a2857611a28611ac3565b500390565b60005b83811015611a48578181015183820152602001611a30565b8381111561092e5750506000910152565b600181811c90821680611a6d57607f821691505b60208210811415611a8e57634e487b7160e01b600052602260045260246000fd5b50919050565b6000600019821415611aa857611aa8611ac3565b5060010190565b600082611abe57611abe611ad9565b500690565b634e487b7160e01b600052601160045260246000fd5b634e487b7160e01b600052601260045260246000fd5b634e487b7160e01b600052604160045260246000fd5b6001600160e01b031981168114610c4b57600080fdfea2646970667358221220f5d5b9092d4052044eb74d2f7205a7cd68dad3e40f4ec61a8d6ef9669be2371f64736f6c63430008040033",
  "linkReferences": {},
  "deployedLinkReferences": {}
}