{
  "_format": "hh-sol-artifact-1",
  "contractName": "LeaseNFT",
  "sourceName": "contracts/LeaseNFT.sol",
  "abi": [
    {
      "inputs": [],
      "stateMutability": "nonpayable",
      "type": "constructor"
    },
    {
      "anonymous": false,
      "inputs": [],
      "name": "LeasesUpdated",
      "type": "event"
    },
    {
      "anonymous": false,
      "inputs": [
        {
          "indexed": true,
          "internalType": "address",
          "name": "previousOwner",
          "type": "address"
        },
        {
          "indexed": true,
          "internalType": "address",
          "name": "newOwner",
          "type": "address"
        }
      ],
      "name": "OwnershipTransferred",
      "type": "event"
    },
    {
      "anonymous": false,
      "inputs": [
        {
          "indexed": false,
          "internalType": "address",
          "name": "account",
          "type": "address"
        }
      ],
      "name": "Paused",
      "type": "event"
    },
    {
      "anonymous": false,
      "inputs": [
        {
          "indexed": false,
          "internalType": "address",
          "name": "account",
          "type": "address"
        }
      ],
      "name": "Unpaused",
      "type": "event"
    },
    {
      "inputs": [
        {
          "internalType": "uint256",
          "name": "leaseID",
          "type": "uint256"
        }
      ],
      "name": "acceptLeaseOffer",
      "outputs": [],
      "stateMutability": "payable",
      "type": "function"
    },
    {
      "inputs": [
        {
          "internalType": "uint256",
          "name": "",
          "type": "uint256"
        }
      ],
      "name": "allLeaseOffers",
      "outputs": [
        {
          "internalType": "uint256",
          "name": "leaseID",
          "type": "uint256"
        },
        {
          "internalType": "address payable",
          "name": "lessor",
          "type": "address"
        },
        {
          "internalType": "address payable",
          "name": "lessee",
          "type": "address"
        },
        {
          "internalType": "address",
          "name": "smartContractAddressOfNFT",
          "type": "address"
        },
        {
          "internalType": "uint256",
          "name": "tokenIdNFT",
          "type": "uint256"
        },
        {
          "internalType": "uint256",
          "name": "collateralAmount",
          "type": "uint256"
        },
        {
          "internalType": "uint256",
          "name": "leasePrice",
          "type": "uint256"
        },
        {
          "internalType": "uint256",
          "name": "leasePeriod",
          "type": "uint256"
        },
        {
          "internalType": "uint256",
          "name": "endLeaseTimeStamp",
          "type": "uint256"
        },
        {
          "internalType": "enum LeaseNFT.Status",
          "name": "status",
          "type": "uint8"
        }
      ],
      "stateMutability": "view",
      "type": "function"
    },
    {
      "inputs": [
        {
          "internalType": "uint256",
          "name": "leaseID",
          "type": "uint256"
        }
      ],
      "name": "cancelLeaseOffer",
      "outputs": [],
      "stateMutability": "nonpayable",
      "type": "function"
    },
    {
      "inputs": [
        {
          "internalType": "address",
          "name": "smartContractAddressOfNFT",
          "type": "address"
        },
        {
          "internalType": "uint256",
          "name": "tokenIdNFT",
          "type": "uint256"
        },
        {
          "internalType": "uint256",
          "name": "collateralAmount",
          "type": "uint256"
        },
        {
          "internalType": "uint256",
          "name": "leasePrice",
          "type": "uint256"
        },
        {
          "internalType": "uint256",
          "name": "leasePeriod",
          "type": "uint256"
        }
      ],
      "name": "createLeaseOffer",
      "outputs": [],
      "stateMutability": "nonpayable",
      "type": "function"
    },
    {
      "inputs": [
        {
          "internalType": "uint256",
          "name": "leaseID",
          "type": "uint256"
        }
      ],
      "name": "endLeaseOffer",
      "outputs": [],
      "stateMutability": "nonpayable",
      "type": "function"
    },
    {
      "inputs": [
        {
          "internalType": "address",
          "name": "operator",
          "type": "address"
        },
        {
          "internalType": "address",
          "name": "from",
          "type": "address"
        },
        {
          "internalType": "uint256",
          "name": "tokenId",
          "type": "uint256"
        },
        {
          "internalType": "bytes",
          "name": "data",
          "type": "bytes"
        }
      ],
      "name": "onERC721Received",
      "outputs": [
        {
          "internalType": "bytes4",
          "name": "",
          "type": "bytes4"
        }
      ],
      "stateMutability": "nonpayable",
      "type": "function"
    },
    {
      "inputs": [],
      "name": "owner",
      "outputs": [
        {
          "internalType": "address",
          "name": "",
          "type": "address"
        }
      ],
      "stateMutability": "view",
      "type": "function"
    },
    {
      "inputs": [],
      "name": "pauseLeasing",
      "outputs": [],
      "stateMutability": "nonpayable",
      "type": "function"
    },
    {
      "inputs": [],
      "name": "paused",
      "outputs": [
        {
          "internalType": "bool",
          "name": "",
          "type": "bool"
        }
      ],
      "stateMutability": "view",
      "type": "function"
    },
    {
      "inputs": [],
      "name": "renounceOwnership",
      "outputs": [],
      "stateMutability": "nonpayable",
      "type": "function"
    },
    {
      "inputs": [],
      "name": "totalLeaseOffers",
      "outputs": [
        {
          "internalType": "uint256",
          "name": "",
          "type": "uint256"
        }
      ],
      "stateMutability": "view",
      "type": "function"
    },
    {
      "inputs": [
        {
          "internalType": "address",
          "name": "newOwner",
          "type": "address"
        }
      ],
      "name": "transferOwnership",
      "outputs": [],
      "stateMutability": "nonpayable",
      "type": "function"
    },
    {
      "inputs": [],
      "name": "unPauseLeasing",
      "outputs": [],
      "stateMutability": "nonpayable",
      "type": "function"
    }
  ],
  "bytecode": "0x608060405234801561001057600080fd5b506000805460ff191690556100243361002e565b6000600155610087565b600080546001600160a01b03838116610100818102610100600160a81b0319851617855560405193049190911692909183917f8be0079c531659141344cd1fd0a4f28419497f9722a3daafe3b4186f6b6457e091a35050565b61137c806100966000396000f3fe6080604052600436106100c25760003560e01c80635c975abb1161007f5780638da5cb5b116100595780638da5cb5b1461026d57806391ad8295146102a3578063a608db62146102c7578063f2fde38b146102da57600080fd5b80635c975abb1461021557806361ffb08414610238578063715018a61461025857600080fd5b8063021a9891146100c75780630d7b5495146100de5780631284c4eb146100f3578063150b7a021461019157806321e73fb2146101d55780634007364f146101f5575b600080fd5b3480156100d357600080fd5b506100dc6102fa565b005b3480156100ea57600080fd5b506100dc61033d565b3480156100ff57600080fd5b5061017261010e36600461118f565b6002602081905260009182526040909120805460018201549282015460038301546004840154600585015460068601546007870154600888015460099098015496986001600160a01b03908116989681169795169593949293919290919060ff168a565b6040516101889a99989796959493929190611258565b60405180910390f35b34801561019d57600080fd5b506101bc6101ac366004611073565b630a85bd0160e11b949350505050565b6040516001600160e01b03199091168152602001610188565b3480156101e157600080fd5b506100dc6101f036600461114c565b610375565b34801561020157600080fd5b506100dc61021036600461118f565b6105ce565b34801561022157600080fd5b5060005460ff166040519015158152602001610188565b34801561024457600080fd5b506100dc61025336600461118f565b610926565b34801561026457600080fd5b506100dc610afb565b34801561027957600080fd5b5060005461010090046001600160a01b03166040516001600160a01b039091168152602001610188565b3480156102af57600080fd5b506102b960015481565b604051908152602001610188565b6100dc6102d536600461118f565b610b35565b3480156102e657600080fd5b506100dc6102f536600461103b565b610e3f565b6000546001600160a01b036101009091041633146103335760405162461bcd60e51b815260040161032a90611223565b60405180910390fd5b61033b610ee0565b565b6000546001600160a01b0361010090910416331461036d5760405162461bcd60e51b815260040161032a90611223565b61033b610f55565b60005460ff16156103985760405162461bcd60e51b815260040161032a906111cb565b6224ea0081106103ea5760405162461bcd60e51b815260206004820152601f60248201527f4c6561736520666f722061206d6178696d756d206f662034207765656b732e00604482015260640161032a565b60405163020604bf60e21b815260048101859052859030906001600160a01b0383169063081812fc9060240160206040518083038186803b15801561042e57600080fd5b505afa158015610442573d6000803e3d6000fd5b505050506040513d601f19601f820116820180604052508101906104669190611057565b6001600160a01b0316146104c65760405162461bcd60e51b815260206004820152602160248201527f5472616e736665722068617320746f20626520617070726f76656420666972736044820152601d60fa1b606482015260840161032a565b6001805460008181526002602081905260409091209182558183018054336001600160a01b0319918216179091559082018054821690556003820180549091166001600160a01b038a161790556004810187905560058101869055600681018590556007810184905560098101805460ff19169055815490916105499190610fcf565b600155604051632142170760e11b81526001600160a01b038316906342842e0e9061057c90339030908b906004016111a7565b600060405180830381600087803b15801561059657600080fd5b505af11580156105aa573d6000803e3d6000fd5b5050604051600080516020611327833981519152925060009150a150505050505050565b8060015481106105f05760405162461bcd60e51b815260040161032a906111f5565b600160008381526002602052604090206009015460ff16600381111561062657634e487b7160e01b600052602160045260246000fd5b1461067d5760405162461bcd60e51b815260206004820152602160248201527f537461747573206973206e6f742041435449564520746f20656e64206c6561736044820152606560f81b606482015260840161032a565b6000828152600260205260409020600101546001600160a01b0316331480156106b757506000828152600260205260409020600801544210155b806106dc5750600082815260026020819052604090912001546001600160a01b031633145b61071d5760405162461bcd60e51b815260206004820152601260248201527124b73b30b634b21037b832b930ba34b7b71760711b604482015260640161032a565b600082815260026020819052604090912060098101805460ff191660031790550154336001600160a01b0390911614156108cd57600082815260026020526040908190206003810154600491820154925163020604bf60e21b8152918201929092526001600160a01b03909116903090829063081812fc9060240160206040518083038186803b1580156107b057600080fd5b505afa1580156107c4573d6000803e3d6000fd5b505050506040513d601f19601f820116820180604052508101906107e89190611057565b6001600160a01b0316146108515760405162461bcd60e51b815260206004820152602a60248201527f536d61727420636f6e7472616374206e6565647320746f20626520617070726f6044820152693b32b2103334b939ba1760b11b606482015260840161032a565b6000838152600260205260409081902060018101546004918201549251632142170760e11b81526001600160a01b03808616946342842e0e94610899943394931692016111a7565b600060405180830381600087803b1580156108b357600080fd5b505af11580156108c7573d6000803e3d6000fd5b50505050505b600082815260026020526040808220600501549051339282156108fc02929190818181858888f1935050505015801561090a573d6000803e3d6000fd5b5060405160008051602061132783398151915290600090a15050565b8060015481106109485760405162461bcd60e51b815260040161032a906111f5565b60008281526002602052604081206009015460ff16600381111561097c57634e487b7160e01b600052602160045260246000fd5b146109e25760405162461bcd60e51b815260206004820152603060248201527f537461747573206973206e6f742050454e44494e4720746f2063616e63656c2060448201526f3632b0b9b29030b3b932b2b6b2b73a1760811b606482015260840161032a565b6000828152600260205260409020600101546001600160a01b03163314610a4b5760405162461bcd60e51b815260206004820152601760248201527f596f7520617265206e6f7420746865206c6573736f722e000000000000000000604482015260640161032a565b60008281526002602081905260409182902060098101805460ff1916909217909155600381015460018201546004928301549351632142170760e11b81526001600160a01b039283169485946342842e0e94610aad94309491169291016111a7565b600060405180830381600087803b158015610ac757600080fd5b505af1158015610adb573d6000803e3d6000fd5b5050604051600080516020611327833981519152925060009150a1505050565b6000546001600160a01b03610100909104163314610b2b5760405162461bcd60e51b815260040161032a90611223565b61033b6000610fe2565b806001548110610b575760405162461bcd60e51b815260040161032a906111f5565b60005460ff1615610b7a5760405162461bcd60e51b815260040161032a906111cb565b60008281526002602052604081206009015460ff166003811115610bae57634e487b7160e01b600052602160045260246000fd5b14610bfb5760405162461bcd60e51b815260206004820181905260248201527f537461747573206973206e6f742050454e44494e4720666f72206c656173652e604482015260640161032a565b6000828152600260205260409020600101546001600160a01b0316331415610c815760405162461bcd60e51b815260206004820152603360248201527f496e76616c6964206f7065726174696f6e2e20596f752063616e6e6f74206c6560448201527230b9b2903cb7bab91037bbb71030b9b9b2ba1760691b606482015260840161032a565b60008281526002602052604081206005810154600690910154610ca49190610fcf565b905080341015610d105760405162461bcd60e51b815260206004820152603160248201527f4e6f7420656e6f7567682045746865722073656e7420746f2066756e6374696f60448201527037103a379039ba30b93a103632b0b9b29760791b606482015260840161032a565b600083815260026020819052604090912090810180546001600160a01b0319163317905560098101805460ff1916600117905560070154610d52904290610fcf565b6000848152600260205260408082206008810193909355600183015460069093015490516001600160a01b039093169281156108fc0292818181858888f19350505050158015610da6573d6000803e3d6000fd5b5060008381526002602052604090819020600381015460049182015492516323b872dd60e01b81526001600160a01b039091169283926323b872dd92610df09230923392016111a7565b600060405180830381600087803b158015610e0a57600080fd5b505af1158015610e1e573d6000803e3d6000fd5b5050604051600080516020611327833981519152925060009150a150505050565b6000546001600160a01b03610100909104163314610e6f5760405162461bcd60e51b815260040161032a90611223565b6001600160a01b038116610ed45760405162461bcd60e51b815260206004820152602660248201527f4f776e61626c653a206e6577206f776e657220697320746865207a65726f206160448201526564647265737360d01b606482015260840161032a565b610edd81610fe2565b50565b60005460ff1615610f035760405162461bcd60e51b815260040161032a906111cb565b6000805460ff191660011790557f62e78cea01bee320cd4e420270b5ea74000d11b0c9f74754ebdbfc544b05a258610f383390565b6040516001600160a01b03909116815260200160405180910390a1565b60005460ff16610f9e5760405162461bcd60e51b815260206004820152601460248201527314185d5cd8589b194e881b9bdd081c185d5cd95960621b604482015260640161032a565b6000805460ff191690557f5db9ee0a495bf2e6ff9c91a7834c1ba4fdd244a5e8aa4e537bd38aeae4b073aa33610f38565b6000610fdb82846112d7565b9392505050565b600080546001600160a01b03838116610100818102610100600160a81b0319851617855560405193049190911692909183917f8be0079c531659141344cd1fd0a4f28419497f9722a3daafe3b4186f6b6457e091a35050565b60006020828403121561104c578081fd5b8135610fdb81611311565b600060208284031215611068578081fd5b8151610fdb81611311565b60008060008060808587031215611088578283fd5b843561109381611311565b935060208501356110a381611311565b925060408501359150606085013567ffffffffffffffff808211156110c6578283fd5b818701915087601f8301126110d9578283fd5b8135818111156110eb576110eb6112fb565b604051601f8201601f19908116603f01168101908382118183101715611113576111136112fb565b816040528281528a602084870101111561112b578586fd5b82602086016020830137918201602001949094529598949750929550505050565b600080600080600060a08688031215611163578081fd5b853561116e81611311565b97602087013597506040870135966060810135965060800135945092505050565b6000602082840312156111a0578081fd5b5035919050565b6001600160a01b039384168152919092166020820152604081019190915260600190565b60208082526010908201526f14185d5cd8589b194e881c185d5cd95960821b604082015260600190565b6020808252601490820152732632b0b9b29024a21034b99034b73b30b634b21760611b604082015260600190565b6020808252818101527f4f776e61626c653a2063616c6c6572206973206e6f7420746865206f776e6572604082015260600190565b8a81526001600160a01b038a811660208301528981166040830152881660608201526080810187905260a0810186905260c0810185905260e0810184905261010081018390526101408101600483106112c157634e487b7160e01b600052602160045260246000fd5b826101208301529b9a5050505050505050505050565b600082198211156112f657634e487b7160e01b81526011600452602481fd5b500190565b634e487b7160e01b600052604160045260246000fd5b6001600160a01b0381168114610edd57600080fdfe584a0af670ae1516f68abb5302601b92f98fe5cd390d5e3e013b8216823f9b2fa26469706673582212203fff0cf1c54e6ed1b9f88f1596ed779eb7d72533aa99c0388d7e9ec239c4488264736f6c63430008040033",
  "linkReferences": {},
  "deployedLinkReferences": {}
}