{
  "_format": "hh-sol-artifact-1",
  "contractName": "LoanNFT",
  "sourceName": "contracts/LoanNFT.sol",
  "abi": [
    {
      "inputs": [],
      "stateMutability": "nonpayable",
      "type": "constructor"
    },
    {
      "anonymous": false,
      "inputs": [],
      "name": "LoansUpdated",
      "type": "event"
    },
    {
      "anonymous": false,
      "inputs": [
        {
          "indexed": true,
          "internalType": "address",
          "name": "previousOwner",
          "type": "address"
        },
        {
          "indexed": true,
          "internalType": "address",
          "name": "newOwner",
          "type": "address"
        }
      ],
      "name": "OwnershipTransferred",
      "type": "event"
    },
    {
      "anonymous": false,
      "inputs": [
        {
          "indexed": false,
          "internalType": "address",
          "name": "account",
          "type": "address"
        }
      ],
      "name": "Paused",
      "type": "event"
    },
    {
      "anonymous": false,
      "inputs": [
        {
          "indexed": false,
          "internalType": "address",
          "name": "account",
          "type": "address"
        }
      ],
      "name": "Unpaused",
      "type": "event"
    },
    {
      "inputs": [
        {
          "internalType": "uint256",
          "name": "loanID",
          "type": "uint256"
        }
      ],
      "name": "acceptLoanRequest",
      "outputs": [],
      "stateMutability": "payable",
      "type": "function"
    },
    {
      "inputs": [
        {
          "internalType": "uint256",
          "name": "",
          "type": "uint256"
        }
      ],
      "name": "allLoanRequests",
      "outputs": [
        {
          "internalType": "uint256",
          "name": "loanID",
          "type": "uint256"
        },
        {
          "internalType": "address payable",
          "name": "lender",
          "type": "address"
        },
        {
          "internalType": "address payable",
          "name": "borrower",
          "type": "address"
        },
        {
          "internalType": "address",
          "name": "smartContractAddressOfNFT",
          "type": "address"
        },
        {
          "internalType": "uint32",
          "name": "tokenIdNFT",
          "type": "uint32"
        },
        {
          "internalType": "uint256",
          "name": "loanAmount",
          "type": "uint256"
        },
        {
          "internalType": "uint256",
          "name": "interestAmount",
          "type": "uint256"
        },
        {
          "internalType": "uint256",
          "name": "maximumPeriod",
          "type": "uint256"
        },
        {
          "internalType": "uint256",
          "name": "endLoanTimeStamp",
          "type": "uint256"
        },
        {
          "internalType": "enum LoanNFT.Status",
          "name": "status",
          "type": "uint8"
        }
      ],
      "stateMutability": "view",
      "type": "function"
    },
    {
      "inputs": [
        {
          "internalType": "uint256",
          "name": "loanID",
          "type": "uint256"
        }
      ],
      "name": "cancelLoanRequest",
      "outputs": [],
      "stateMutability": "nonpayable",
      "type": "function"
    },
    {
      "inputs": [
        {
          "internalType": "address",
          "name": "smartContractAddressOfNFT",
          "type": "address"
        },
        {
          "internalType": "uint32",
          "name": "tokenIdNFT",
          "type": "uint32"
        },
        {
          "internalType": "uint256",
          "name": "loanAmount",
          "type": "uint256"
        },
        {
          "internalType": "uint256",
          "name": "interestAmount",
          "type": "uint256"
        },
        {
          "internalType": "uint256",
          "name": "maximumPeriod",
          "type": "uint256"
        }
      ],
      "name": "createLoanRequest",
      "outputs": [],
      "stateMutability": "nonpayable",
      "type": "function"
    },
    {
      "inputs": [
        {
          "internalType": "uint256",
          "name": "loanID",
          "type": "uint256"
        }
      ],
      "name": "endLoanRequest",
      "outputs": [],
      "stateMutability": "payable",
      "type": "function"
    },
    {
      "inputs": [],
      "name": "owner",
      "outputs": [
        {
          "internalType": "address",
          "name": "",
          "type": "address"
        }
      ],
      "stateMutability": "view",
      "type": "function"
    },
    {
      "inputs": [],
      "name": "pauseLoans",
      "outputs": [],
      "stateMutability": "nonpayable",
      "type": "function"
    },
    {
      "inputs": [],
      "name": "paused",
      "outputs": [
        {
          "internalType": "bool",
          "name": "",
          "type": "bool"
        }
      ],
      "stateMutability": "view",
      "type": "function"
    },
    {
      "inputs": [],
      "name": "renounceOwnership",
      "outputs": [],
      "stateMutability": "nonpayable",
      "type": "function"
    },
    {
      "inputs": [],
      "name": "totalLoanRequests",
      "outputs": [
        {
          "internalType": "uint256",
          "name": "",
          "type": "uint256"
        }
      ],
      "stateMutability": "view",
      "type": "function"
    },
    {
      "inputs": [
        {
          "internalType": "address",
          "name": "newOwner",
          "type": "address"
        }
      ],
      "name": "transferOwnership",
      "outputs": [],
      "stateMutability": "nonpayable",
      "type": "function"
    },
    {
      "inputs": [],
      "name": "unPauseLoans",
      "outputs": [],
      "stateMutability": "nonpayable",
      "type": "function"
    }
  ],
  "bytecode": "0x608060405234801561001057600080fd5b506000805460ff191690556100243361002e565b6000600155610087565b600080546001600160a01b03838116610100818102610100600160a81b0319851617855560405193049190911692909183917f8be0079c531659141344cd1fd0a4f28419497f9722a3daafe3b4186f6b6457e091a35050565b611232806100966000396000f3fe6080604052600436106100a75760003560e01c80638da5cb5b116100645780638da5cb5b146101da578063908ef646146102105780639439f64714610225578063c16f547e14610245578063f2fde38b14610258578063f9e7d3d11461027857600080fd5b80635a680367146100ac5780635c975abb146100ce578063634609c2146100f6578063715018a61461018e5780637331978f146101a3578063765d9491146101b6575b600080fd5b3480156100b857600080fd5b506100cc6100c73660046110a4565b61028d565b005b3480156100da57600080fd5b5060005460ff1660405190151581526020015b60405180910390f35b34801561010257600080fd5b506101786101113660046110a4565b600260208190526000918252604090912080546001820154928201546003830154600484015460058501546006860154600787015460089097015495976001600160a01b03908116979581169690851695600160a01b90950463ffffffff16949060ff168a565b6040516100ed9a9998979695949392919061111e565b34801561019a57600080fd5b506100cc6104cd565b6100cc6101b13660046110a4565b610509565b3480156101c257600080fd5b506101cc60015481565b6040519081526020016100ed565b3480156101e657600080fd5b5060005461010090046001600160a01b03166040516001600160a01b0390911681526020016100ed565b34801561021c57600080fd5b506100cc610796565b34801561023157600080fd5b506100cc61024036600461104c565b6107ce565b6100cc6102533660046110a4565b610afc565b34801561026457600080fd5b506100cc61027336600461100d565b610dc9565b34801561028457600080fd5b506100cc610e6a565b8060015481106102b85760405162461bcd60e51b81526004016102af906110bc565b60405180910390fd5b60008281526002602052604081206008015460ff1660048111156102ec57634e487b7160e01b600052602160045260246000fd5b1461034e5760405162461bcd60e51b815260206004820152602c60248201527f537461747573206973206e6f742050454e44494e4720746f2063616e63656c2060448201526b1b1bd85b881c995c5d595cdd60a21b60648201526084016102af565b600082815260026020819052604090912001546001600160a01b0316331461037557600080fd5b6000828152600260208190526040909120600801805460ff19166001835b02179055506000828152600260205260409081902060030154905163095ea7b360e01b8152336004820152600160a01b820463ffffffff1660248201526001600160a01b0390911690819063095ea7b3906044015b600060405180830381600087803b15801561040257600080fd5b505af1158015610416573d6000803e3d6000fd5b505050600084815260026020526040908190206003015490516323b872dd60e01b8152306004820152336024820152600160a01b90910463ffffffff1660448201526001600160a01b03831691506323b872dd90606401600060405180830381600087803b15801561048757600080fd5b505af115801561049b573d6000803e3d6000fd5b50506040517f01163e919b1fd75968a143d56990c801b68ce928c77db2aaa2ee00c1561b3768925060009150a1505050565b6000546001600160a01b036101009091041633146104fd5760405162461bcd60e51b81526004016102af906110e9565b6105076000610ea2565b565b80600154811061052b5760405162461bcd60e51b81526004016102af906110bc565b600160008381526002602052604090206008015460ff16600481111561056157634e487b7160e01b600052602160045260246000fd5b146105ae5760405162461bcd60e51b815260206004820152601d60248201527f5374617475732069732041435449564520746f20656e64206c6f616e2e00000060448201526064016102af565b6000828152600260205260409020600101546001600160a01b0316331480156105e857506000828152600260205260409020600701544210155b8061060d5750600082815260026020819052604090912001546001600160a01b031633145b61064f5760405162461bcd60e51b81526020600482015260136024820152722ab730b13632903a379032b732103637b0b71760691b60448201526064016102af565b600082815260026020819052604090912001546001600160a01b031633141561071f576000828152600260205260409020600401543410156106bc5760405162461bcd60e51b81526004016102af9060208082526004908201526303a3432960e51b604082015260600190565b60008281526002602052604080822060088101805460ff19166003179055600181015460049091015491516001600160a01b03909116926108fc831502929190818181858888f19350505050158015610719573d6000803e3d6000fd5b50610742565b600082815260026020526040902060080180546004919060ff1916600183610393565b6000828152600260205260409081902060030154905163095ea7b360e01b8152336004820152600160a01b820463ffffffff1660248201526001600160a01b0390911690819063095ea7b3906044016103e8565b6000546001600160a01b036101009091041633146107c65760405162461bcd60e51b81526004016102af906110e9565b610507610efb565b82821061082b5760405162461bcd60e51b815260206004820152602560248201527f496e746572657374206d757374206265206c6f776572207468616e20746865206044820152643637b0b71760d91b60648201526084016102af565b600c811061088b5760405162461bcd60e51b815260206004820152602760248201527f4d6178696d756d20696e74657265737420706572696f6473206172652031322060448201526636b7b73a34399760c91b60648201526084016102af565b600081116108e75760405162461bcd60e51b8152602060048201526024808201527f4d6178696d756d20696e74657265737420706572696f642063616e6e6f7420626044820152633290181760e11b60648201526084016102af565b60405163020604bf60e21b815263ffffffff85166004820152859030906001600160a01b0383169063081812fc9060240160206040518083038186803b15801561093057600080fd5b505afa158015610944573d6000803e3d6000fd5b505050506040513d601f19601f820116820180604052508101906109689190611030565b6001600160a01b0316146109c85760405162461bcd60e51b815260206004820152602160248201527f5472616e736665722068617320746f20626520617070726f76656420666972736044820152601d60fa1b60648201526084016102af565b60018054600081815260026020819052604090912091825581830180546001600160a01b031990811690915590820180549091163317905560038101805463ffffffff8916600160a01b026001600160c01b03199091166001600160a01b038b161717905560048101869055600581018590556006810184905560088101805460ff1916905581549091610a5c91906111a2565b600155604051632142170760e11b815233600482015230602482015263ffffffff871660448201526001600160a01b038316906342842e0e90606401600060405180830381600087803b158015610ab257600080fd5b505af1158015610ac6573d6000803e3d6000fd5b50506040517f01163e919b1fd75968a143d56990c801b68ce928c77db2aaa2ee00c1561b3768925060009150a150505050505050565b806001548110610b1e5760405162461bcd60e51b81526004016102af906110bc565b60005460ff1615610b645760405162461bcd60e51b815260206004820152601060248201526f14185d5cd8589b194e881c185d5cd95960821b60448201526064016102af565b60008281526002602052604081206008015460ff166004811115610b9857634e487b7160e01b600052602160045260246000fd5b14610be55760405162461bcd60e51b815260206004820152601b60248201527f5374617475732069732050454e44494e4720666f72206c6f616e2e000000000060448201526064016102af565b600082815260026020819052604090912001546001600160a01b0316331415610c765760405162461bcd60e51b815260206004820152603760248201527f496e76616c6964206f7065726174696f6e2e20596f752063616e6e6f7420756e60448201527f646572777269746520796f7572206f776e206c6f616e2e00000000000000000060648201526084016102af565b60008281526002602052604081206005810154600490910154610c9991906111ba565b905080341015610d095760405162461bcd60e51b815260206004820152603560248201527f4e6f7420656e6f7567682045746865722073656e7420746f2066756e6374696f60448201527437103a37903ab73232b93bb934ba32903637b0b71760591b60648201526084016102af565b6000838152600260205260409020600180820180546001600160a01b0319163317905560088201805460ff1916909117905560060154610d4990426111a2565b6000848152600260208190526040808320600781019490945592015491516001600160a01b039092169183156108fc0291849190818181858888f19350505050158015610d9a573d6000803e3d6000fd5b506040517f01163e919b1fd75968a143d56990c801b68ce928c77db2aaa2ee00c1561b376890600090a1505050565b6000546001600160a01b03610100909104163314610df95760405162461bcd60e51b81526004016102af906110e9565b6001600160a01b038116610e5e5760405162461bcd60e51b815260206004820152602660248201527f4f776e61626c653a206e6577206f776e657220697320746865207a65726f206160448201526564647265737360d01b60648201526084016102af565b610e6781610ea2565b50565b6000546001600160a01b03610100909104163314610e9a5760405162461bcd60e51b81526004016102af906110e9565b610507610f93565b600080546001600160a01b03838116610100818102610100600160a81b0319851617855560405193049190911692909183917f8be0079c531659141344cd1fd0a4f28419497f9722a3daafe3b4186f6b6457e091a35050565b60005460ff1615610f415760405162461bcd60e51b815260206004820152601060248201526f14185d5cd8589b194e881c185d5cd95960821b60448201526064016102af565b6000805460ff191660011790557f62e78cea01bee320cd4e420270b5ea74000d11b0c9f74754ebdbfc544b05a258610f763390565b6040516001600160a01b03909116815260200160405180910390a1565b60005460ff16610fdc5760405162461bcd60e51b815260206004820152601460248201527314185d5cd8589b194e881b9bdd081c185d5cd95960621b60448201526064016102af565b6000805460ff191690557f5db9ee0a495bf2e6ff9c91a7834c1ba4fdd244a5e8aa4e537bd38aeae4b073aa33610f76565b60006020828403121561101e578081fd5b8135611029816111e7565b9392505050565b600060208284031215611041578081fd5b8151611029816111e7565b600080600080600060a08688031215611063578081fd5b853561106e816111e7565b9450602086013563ffffffff81168114611086578182fd5b94979496505050506040830135926060810135926080909101359150565b6000602082840312156110b5578081fd5b5035919050565b6020808252601390820152722637b0b71024a21034b99034b73b30b634b21760691b604082015260600190565b6020808252818101527f4f776e61626c653a2063616c6c6572206973206e6f7420746865206f776e6572604082015260600190565b8a81526001600160a01b038a8116602083015289811660408301528816606082015263ffffffff8716608082015260a0810186905260c0810185905260e08101849052610100810183905261014081016005831061118c57634e487b7160e01b600052602160045260246000fd5b826101208301529b9a5050505050505050505050565b600082198211156111b5576111b56111d1565b500190565b6000828210156111cc576111cc6111d1565b500390565b634e487b7160e01b600052601160045260246000fd5b6001600160a01b0381168114610e6757600080fdfea2646970667358221220f1c49b021d3f690095a1ce7967fd88f5049a37efa728e76d97284020b36e50c864736f6c63430008040033",
  "linkReferences": {},
  "deployedLinkReferences": {}
}